{
  "contractName": "Todolist",
  "abi": [
    {
      "anonymous": false,
      "inputs": [
        {
          "indexed": false,
          "internalType": "uint256",
          "name": "id",
          "type": "uint256"
        },
        {
          "indexed": false,
          "internalType": "uint256",
          "name": "time",
          "type": "uint256"
        },
        {
          "indexed": false,
          "internalType": "uint256",
          "name": "content",
          "type": "uint256"
        },
        {
          "indexed": false,
          "internalType": "address",
          "name": "writer",
          "type": "address"
        },
        {
          "indexed": false,
          "internalType": "bool",
          "name": "isDone",
          "type": "bool"
        }
      ],
      "name": "HanderList",
      "type": "event"
    },
    {
      "constant": true,
      "inputs": [
        {
          "internalType": "uint256",
          "name": "",
          "type": "uint256"
        }
      ],
      "name": "lists",
      "outputs": [
        {
          "internalType": "uint256",
          "name": "id",
          "type": "uint256"
        },
        {
          "internalType": "uint256",
          "name": "time",
          "type": "uint256"
        },
        {
          "internalType": "uint256",
          "name": "content",
          "type": "uint256"
        },
        {
          "internalType": "address",
          "name": "writer",
          "type": "address"
        },
        {
          "internalType": "bool",
          "name": "isDone",
          "type": "bool"
        }
      ],
      "payable": false,
      "stateMutability": "view",
      "type": "function"
    },
    {
      "constant": false,
      "inputs": [
        {
          "internalType": "uint256",
          "name": "content",
          "type": "uint256"
        }
      ],
      "name": "tianjia",
      "outputs": [
        {
          "internalType": "bool",
          "name": "",
          "type": "bool"
        }
      ],
      "payable": false,
      "stateMutability": "nonpayable",
      "type": "function"
    },
    {
      "constant": false,
      "inputs": [
        {
          "internalType": "uint256",
          "name": "id",
          "type": "uint256"
        }
      ],
      "name": "wancheng",
      "outputs": [
        {
          "internalType": "bool",
          "name": "",
          "type": "bool"
        }
      ],
      "payable": false,
      "stateMutability": "nonpayable",
      "type": "function"
    },
    {
      "constant": false,
      "inputs": [
        {
          "internalType": "uint256",
          "name": "id",
          "type": "uint256"
        }
      ],
      "name": "shanchu",
      "outputs": [
        {
          "internalType": "bool",
          "name": "",
          "type": "bool"
        }
      ],
      "payable": false,
      "stateMutability": "nonpayable",
      "type": "function"
    }
  ],
  "bytecode": "0x608060405234801561001057600080fd5b50610715806100206000396000f3fe608060405234801561001057600080fd5b506004361061004c5760003560e01c8063856b32131461005157806396102cf414610097578063f2b3f22014610125578063fc7c99571461016b575b600080fd5b61007d6004803603602081101561006757600080fd5b81019080803590602001909291905050506101b1565b604051808215151515815260200191505060405180910390f35b6100c3600480360360208110156100ad57600080fd5b8101908080359060200190929190505050610369565b604051808681526020018581526020018481526020018373ffffffffffffffffffffffffffffffffffffffff1673ffffffffffffffffffffffffffffffffffffffff168152602001821515151581526020019550505050505060405180910390f35b6101516004803603602081101561013b57600080fd5b81019080803590602001909291905050506103d9565b604051808215151515815260200191505060405180910390f35b6101976004803603602081101561018157600080fd5b8101908080359060200190929190505050610583565b604051808215151515815260200191505060405180910390f35b60008160018054905081101561022f576040517f08c379a000000000000000000000000000000000000000000000000000000000815260040180806020018281038252600a8152602001807f6964206e6f2066756e640000000000000000000000000000000000000000000081525060200191505060405180910390fd5b600081106102a5576040517f08c379a000000000000000000000000000000000000000000000000000000000815260040180806020018281038252600a8152602001807f6964206e6f2066756e640000000000000000000000000000000000000000000081525060200191505060405180910390fd5b6000600184815481106102b457fe5b90600052602060002090600402019050600115158160030160149054906101000a900460ff161515146102e657600080fd5b600184815481106102f357fe5b9060005260206000209060040201600080820160009055600182016000905560028201600090556003820160006101000a81549073ffffffffffffffffffffffffffffffffffffffff02191690556003820160146101000a81549060ff0219169055505083600081905550600192505050919050565b6001818154811061037657fe5b90600052602060002090600402016000915090508060000154908060010154908060020154908060030160009054906101000a900473ffffffffffffffffffffffffffffffffffffffff16908060030160149054906101000a900460ff16905085565b60006040518060a0016040528060005481526020014281526020018381526020013373ffffffffffffffffffffffffffffffffffffffff1681526020016000151581525060016000548154811061042c57fe5b906000526020600020906004020160008201518160000155602082015181600101556040820151816002015560608201518160030160006101000a81548173ffffffffffffffffffffffffffffffffffffffff021916908373ffffffffffffffffffffffffffffffffffffffff16021790555060808201518160030160146101000a81548160ff0219169083151502179055509050507f3877c172e4eebea262f211432d04e66b7db4263f6e71b3188747d9f11c2f7c646000544284336000604051808681526020018581526020018481526020018373ffffffffffffffffffffffffffffffffffffffff1673ffffffffffffffffffffffffffffffffffffffff168152602001821515151581526020019550505050505060405180910390a1600180549050600054101561057157600080815480929190600101919050555061057e565b6001805490506000819055505b919050565b600081600180549050811015610601576040517f08c379a000000000000000000000000000000000000000000000000000000000815260040180806020018281038252600a8152602001807f6964206e6f2066756e640000000000000000000000000000000000000000000081525060200191505060405180910390fd5b60008110610677576040517f08c379a000000000000000000000000000000000000000000000000000000000815260040180806020018281038252600a8152602001807f6964206e6f2066756e640000000000000000000000000000000000000000000081525060200191505060405180910390fd5b60006001848154811061068657fe5b90600052602060002090600402019050600015158160030160149054906101000a900460ff161515146106b857600080fd5b60008160030160146101000a81548160ff02191690831515021790555060019250505091905056fea265627a7a72315820acb83604ef26e7d462c86e4e7ee20f55abbc4a9f72555b63b93dd746e027fcc564736f6c63430005100032",
  "source": "// SPDX-License-Identifier: GPL-3.0\npragma solidity >=0.4.22 <0.9.0;\n\ncontract Todolist {\n    uint256 beforeDeleteId;\n    struct List {\n        uint256 id; // id\n        uint256 time; // 时间\n        uint256 content; // 内容\n        address writer; // 写入者\n        bool isDone; // 是否完成\n    }\n    List[] public lists;\n    event HanderList(\n        uint256 id,\n        uint256 time,\n        uint256 content,\n        address writer,\n        bool isDone\n    );\n\n    modifier LegalId(uint256 id) {\n        require(id >= lists.length, \"id no fund\");\n        require(id < 0, \"id no fund\");\n        _;\n    }\n\n    function tianjia(uint content) public returns (bool) {\n        lists[beforeDeleteId] = List(\n            beforeDeleteId,\n            block.timestamp,\n            content,\n            msg.sender,\n            false\n        );\n        emit HanderList(\n            beforeDeleteId,\n            block.timestamp,\n            content,\n            msg.sender,\n            false\n        );\n        if (beforeDeleteId < lists.length) {\n            beforeDeleteId++;\n        } else {\n            beforeDeleteId = lists.length;\n        }\n    }\n\n    function wancheng(uint256 id) public LegalId(id) returns (bool) {\n        List storage list = lists[id];\n        require(list.isDone == false);\n        list.isDone = false;\n        return true;\n    }\n\n    function shanchu(uint256 id) public LegalId(id) returns (bool) {\n        List storage list = lists[id];\n        require(list.isDone == true);\n        delete lists[id];\n        beforeDeleteId = id;\n        return true;\n    }\n}\n",
  "sourcePath": "/Users/xiangzhengfeng/Desktop/file/qianduanxinlv/truffle-demo/contracts/Todolist.sol",
  "compiler": {
    "name": "solc",
    "version": "0.5.16+commit.9c3226ce.Emscripten.clang"
  },
  "schemaVersion": "3.3.4",
  "updatedAt": "2021-03-24T06:49:02.969Z",
  "devdoc": {
    "methods": {}
  },
  "userdoc": {
    "methods": {}
  }
}